:020000040800F2
:1000000070070020DD050008B1030008B3030008F5
:10001000B7030008BB030008BF030008000000008E
:10002000000000000000000000000000C303000802
:10003000C503000800000000C7030008C90300084A
:10004000F7050008F7050008F7050008F7050008A0
:10005000F7050008F7050008F7050008F705000890
:10006000F7050008F7050008F7050008F705000880
:10007000F7050008F7050008F7050008F705000870
:10008000F7050008F7050008F7050008F705000860
:10009000F7050008F7050008F7050008F705000850
:1000A000F7050008F7050008F7050008F705000840
:1000B000F705000841360008F7050008F7050008B5
:1000C000F7050008F7050008F7050008F705000820
:1000D000F705000825310008F7050008F7050008B6
:1000E000F7050008F7050008F7050008F705000800
:1000F000F7050008F7050008F7050008F7050008F0
:10010000F7050008F7050008F7050008F7050008DF
:10011000F7050008F7050008F7050008F7050008CF
:10012000F7050008F7050008F7050008F7050008BF
:10013000F7050008F7050008F7050008F7050008AF
:10014000A3330008F7050008F7050008F7050008C5
:10015000F7050008F7050008F7050008F70500088F
:10016000F7050008F7050008F7050008F70500087F
:10017000F7050008F7050008F7050008F70500086F
:10018000F7050008F705000800F002F800F03CF859
:100190000AA090E8000C82448344AAF10107DA45E2
:1001A00001D100F031F8AFF2090EBAE80F0013F0F8
:1001B000010F18BFFB1A43F001031847A85F0000A6
:1001C000C85F0000103A24BF78C878C1FAD8520737
:1001D00024BF30C830C144BF04680C6070470000C1
:1001E0000023002400250026103A28BF78C1FBD840
:1001F000520728BF30C148BF0B6070471FB504F0DD
:1002000091F81FBD10B510BD03F0A8FD1146FFF712
:10021000F5FF00F033F803F0C6FD03B4FFF7F2FF7B
:1002200003BC02F0E1FE000010B54FF4407000F096
:10023000F5F9A82002F07AFE03F05FF9414802F0D8
:10024000CBFF42F2CF0141F2873003F0CDF903F04A
:1002500023F94FF4E13002F0D5FE03F007FA03F082
:10026000D4FA102338A20021084603F085FC10239D
:1002700039A22821002003F0C0FB10BDFFF7D4FFF6
:100280005FE003F050F90A2002F08EFE3548007856
:1002900028B33548007810BB34480078F8B93448A2
:1002A000007805281BDB0121084603F0CAF800226C
:1002B0004FF4FA71012003F007F903F08AFA1023D2
:1002C0002CA21821002003F098FB00212D4801F0FA
:1002D000E7FE00202649087001202B4908702348BA
:1002E0000078F0B128480078C0B90021012003F05F
:1002F000A8F800223221012003F0E6F803F069FAA1
:10030000102322A21821002003F077FB00211D48B2
:1003100001F0C6FE00201649087002E000201A49CC
:1003200008701E48007860B103F053FA10231CA235
:100330001821002003F061FB0A223221012003F082
:10034000C3F89EE700680040B5E7D7D3BFC6BCBC82
:10035000B4F3D1A700000000616C6C207265616489
:100360007921000039000020380000203A000020E8
:10037000400000204B657931204C6F6E67507265EC
:100380007373000000040040000000204B657931C9
:100390002053686F72745072657373003D000020C3
:1003A0004B6579352053686F7274507265737300B2
:1003B000704700BFFEE700BFFEE700BFFEE700BFDB
:1003C000FEE7704770477047704700000CB500208B
:1003D000019000907648006840F4803074490860CD
:1003E00000BF7348006800F4003000900198401C82
:1003F0000190009818B90198B0F5A04FF1D16C4860
:10040000006800F4003010B10120009001E00020ED
:1004100000900098012846D165484030006840F0BF
:1004200080506349403108606248006840F44040B1
:10043000604908605E48083000685D49083108601E
:100440000846006840F4004008600846006840F430
:10045000A05008605848091F0860081F006840F055
:100460008070091F086000BF5148006800F00070EC
:100470000028F9D040F20570504908604C48083017
:10048000006820F003004A49083108600846006807
:1004900040F00200086000BF45480830006800F0E6
:1004A0000C000828F8D10CBD10B54548006840F490
:1004B0007000434908603E48006840F001003C4934
:1004C000086000203A4908310860394800683D4911
:1004D0000840374908603C48091D0860081F00684B
:1004E00020F48020091F0860002031490C31086089
:1004F000FFF76CFF4FF0006031498039086010BD94
:1005000070B500200022022300240221284D083566
:100510002D6805F00C0020B1042806D0082834D13D
:1005200007E02A4D2A4E356033E02A4D284E3560CB
:100530002FE01F4D2D1D2D68C5F380541C4D2D1D22
:100540002D6805F03F0154B1224DB5FBF1F5184E71
:10055000361D3668C6F3881605FB06F209E01B4D0A
:10056000B5FBF1F5124E361D3668C6F3881605FB4D
:1005700006F20F4D2D1D2D68C5F301456D1C6B0056
:10058000B2FBF3F5124E356003E0104D104E3560AE
:1005900000BF00BF064D08352D68C5F303150E4E8C
:1005A000705D0B4D2D68C540094E356070BD000073
:1005B000003802400070004008544007003C0240F0
:1005C00088ED00E0FFFFF6FE103000240024F40068
:1005D0000400002000127A0008000020094880472B
:1005E00009480047FEE7FEE7FEE7FEE7FEE7FEE715
:1005F000FEE7FEE7FEE7FEE704480549054A064B2D
:1006000070470000A904000889010008700100205B
:10061000700700207003002070030020324901435E
:10062000324A1160704770B5002100230F22C47850
:100630001CB32E4C246804F4E064C4F5E064C4F3F5
:100640000721C1F10404E3B20A4144789C40E1B2BD
:100650008478144021430C07210E254C0578615500
:10066000047804F01F050124AC4005786D11AD003D
:1006700005F1E025C5F8004109E0047804F01F0504
:100680000124AC401B4D0678761145F8264070BD1C
:10069000194A0A400243154B1B1F1A60704739B1B3
:1006A000124A121D12680243104B1B1D1A6006E00D
:1006B0000E4A121D126882430C4B1B1D1A607047B4
:1006C000042808D14FF0E021096941F004014FF0FE
:1006D000E022116107E04FF0E021096921F00401F7
:1006E0004FF0E022116170470000FA050CED00E0C8
:1006F00000E400E080E100E080FFFF1F10B5044649
:10070000FE48844209D10121480601F0DDFA0021AA
:100710004FF0007001F0D8FA08E00121880601F0DE
:10072000D3FA00214FF0806001F0CEFA10BD30B551
:10073000024600200023146824F0020414601468A8
:1007400044F00104146000E05B1C546804F00104F0
:100750001CB94FF6FF74A342F6D1546804F00104AB
:100760000CB900206CE08C79012C04D1146844F0A1
:100770008004146003E0146824F080041460CC79D1
:10078000012C04D1146844F04004146003E01468A0
:1007900024F0400414600C7A012C04D1146844F055
:1007A0002004146003E0146824F0200414604C7AE0
:1007B000012C04D1146844F01004146003E01468A0
:1007C00024F0100414608C7A012C04D1146844F0D5
:1007D0000804146003E0146824F008041460CC7A60
:1007E000012C04D1146844F00404146003E014687C
:1007F00024F0040414608C78A407CD7844EA0564DE
:100800000D7944EA05444D7944EA05540D886D1E7E
:100810002C43D461146824F001041460002300E028
:100820005B1C546804F001041CB14FF6FF74A34232
:10083000F6D1546804F001040CB1002000E001205E
:1008400030BD10B50021837A012202FA03F1AC4ACF
:10085000126842F00102AA4B1A60A94A1C321268BF
:100860008A43A74B1C331A60027BCAB9A44A0C32D4
:1008700012688A43A24B0C331A604288C38842EA4A
:1008800003439F4A4032847A42F834300288838896
:1008900042EA03439A4A4032847A02EBC40253602C
:1008A000027B012A19D1964A0C3212680A43944BF2
:1008B0000C331A604288038842EA0343904A40326C
:1008C000847A42F83430C288838842EA03438C4AEF
:1008D0004032847A02EBC4025360C27A3AB9884A41
:1008E000121D12688A43864B1B1D1A6006E0844A5B
:1008F000121D12680A43824B1B1D1A60028932B90D
:100900007F4A143212688A437D4B14331A6002897D
:10091000012A06D17A4A143212680A43784B1433FA
:100920001A60427B012A06D1754A1C3212680A43BA
:10093000734B1C331A60724A126822F00102704B2A
:100940001A6010BD00218171C17101724172817202
:10095000C1728170C17003210171022141710121B5
:10096000018070476649096841F00101644A1160DD
:100970001146096843F60E729143614A11601146AF
:10098000096841EA002111601146096821F001015E
:100990001160704721B1026842F48032026003E0C6
:1009A000026822F4803202607047E1B1026842F0CE
:1009B000800202604FF4C272125842F480734FF406
:1009C000C27213504FF4CA72125842F480734FF43B
:1009D000CA7213504FF4D272125842F480734FF41B
:1009E000D27213501BE0026822F0800202604FF4C2
:1009F000C272125822F480734FF4C27213504FF433
:100A0000CA72125822F480734FF4CA7213504FF412
:100A1000D272125822F480734FF4D272135070477E
:100A200010B502460020936803F08063B3F1806F35
:100A300000D110E0936803F00063B3F1006F01D1BF
:100A4000012008E0936803F08053B3F1805F01D187
:100A5000022000E00420042879D002F5C07303EBE3
:100A600000131B6803F0010402F5C07303EB0013CD
:100A70001C600B7A7BB94B7A0C8843EA445302F52D
:100A8000C07404EB00142468234302F5C07404EB23
:100A90000014236010E00B7A4C6843EAC4034C7ADC
:100AA000234302F5C07404EB00142468234302F5C9
:100AB000C07404EB001423608B7A03F00F038B7275
:100AC00002F5C07303EB00135B6823F00F0402F51B
:100AD000C07303EB00135C6002F5C07303EB0013FB
:100AE0005B688C7A234302F5C07404EB00146360E6
:100AF0008B7B1C064B7B44EA034403E0006400400C
:100B0000006600400B7B44EA0323CC7A234302F5C2
:100B1000C07404EB0014A3608B7C1C064B7C44EA7D
:100B200003440B7C44EA0323CC7B234302F5C074CB
:100B300004EB0014E36002F5C07303EB00131B68C1
:100B400043F0010402F5C07303EB00131C6010BDF9
:100B500010B50246002321B1012907D002290FD187
:100B600009E09068F94C00EA04030BE09068F84C47
:100B700000EA040306E09068F64C00EA040301E092
:100B8000002300BF00BFF44C181BA34216D007DCA3
:100B900083B16FF08060184470B1022818D111E061
:100BA000B0F5007F10D0ED4C204448B1B0F5003FC7
:100BB0000ED10BE002230DE000230BE0002309E03F
:100BC000002307E0012305E0012303E0012301E006
:100BD000002300BF00BFD8B210BD21B1012907D04A
:100BE00002290FD109E0826842F0800282600AE0A7
:100BF000826842F40042826005E0826842F40002AA
:100C0000826000E000BF00BF704710B500F5D873E8
:100C100003EB01131B6803F004031372137A53B937
:100C200000F5D87303EB01131B6840F2FF7404EA6C
:100C30005353136009E000F5D87303EB01131B68ED
:100C40006FF0604404EAD303536000F5D87303EBFC
:100C500001131B6803F00203537200F5D87303EB12
:100C600001135B6803F00F03937200F5D87303EB75
:100C700001135B681B0AD37400F5D87303EB0113EF
:100C80009B68D37200F5D87303EB01139B681C0AB1
:100C9000147300F5D87303EB01139B681C0C547399
:100CA00000F5D87303EB01139B681B0E937300F5DB
:100CB000D87303EB0113DB68D37300F5D87303EB30
:100CC0000113DB681C0A147400F5D87303EB0113DD
:100CD000DB681C0C547400F5D87303EB0113DB685C
:100CE0001B0E937421B9C36843F02003C36003E073
:100CF000036943F02003036110BD21B9C26842F0CB
:100D00002002C26003E0026942F0200202617047E3
:100D10000246002019B9D36803F0030006E0012958
:100D200003D1136903F0030000E00020704710B501
:100D300002460B4600204FF6FF71BBB9146824F041
:100D4000020444F00104146000E0491E546804F0F9
:100D50000304012C01D00029F7D1546804F00304E6
:100D6000012C01D0002032E0012030E0012B13D112
:100D7000146824F00304146000E0491E546804F071
:100D800003040CB10029F8D1546804F003040CB139
:100D900000201CE001201AE0022B17D1146824F077
:100DA000010444F00204146000E0491E546804F099
:100DB0000304022C01D00029F7D1546804F0030485
:100DC000022C01D0002002E0012000E0002010BD34
:100DD000014600200A6822F0010242F002020A6085
:100DE0004A6802F00302022A00D10120704701463E
:100DF0004FF6FF7200200B6823F002030B6000E047
:100E0000521E4B6803F00203022B01D1002AF7D1D6
:100E10004B6803F00203022B00D00120704701460B
:100E200000208A6902F070007047014600208A693C
:100E3000100E7047014600208A69C2F307407047D0
:100E40001AB143690B43436102E043698B43436139
:100E5000704710B50246002001F4700343B1936956
:100E6000C1F3130423400BB101202DE000202BE03F
:100E700001F0807343B15368C1F3130423400BB1F5
:100E8000012021E000201FE001F0006343B19368DE
:100E9000C1F3130423400BB1012015E0002013E03F
:100EA00001F0007343B1D368C1F3130423400BB1C5
:100EB000012009E0002007E01369C1F31304234077
:100EC0000BB1012000E0002010BD0022244B99420C
:100ED00002D10023836111E0C1F3130201F000731A
:100EE0000BB1C2600AE001F080630BB1026105E062
:100EF00001F000630BB1826000E04260704702467F
:100F0000002002EA01030BB1012000E0002070473D
:100F100070B504460D46002660692840002872D04E
:100F2000B5F5807F69D01DDC082D42D006DC012D8F
:100F30002DD0022D31D0042D7FD134E0102D3ED0A4
:100F4000202D42D0402D78D145E000000300000460
:100F50000003000800000310000100080001FFF773
:100F60007000F030B5F5004F61D009DCB5F5007FB9
:100F70004AD0B5F5806F4DD0B5F5006F5DD150E02A
:100F8000B5F5803F2DD0B5F5003F56D12FE0A068D4
:100F90005549FFF7B4FF064651E0E0680321FFF72B
:100FA000AEFF06464BE0E0680821FFF7A8FF0646C3
:100FB00045E0E0681021FFF7A2FF06463FE0206908
:100FC0000321FFF79CFF064639E020690821FFF75F
:100FD00096FF064633E020691021FFF790FF064692
:100FE0002DE060680821FFF78AFF064627E0606869
:100FF0001021FFF784FF064621E0A0690121FFF7D9
:101000007EFF06461BE01BE0A0690221FFF777FF89
:10101000064614E0A0690421FFF771FF06460EE0C2
:101020000BE0A0697021FFF76AFF064607E06068E1
:101030000421FFF764FF064601E0002600BF00E040
:101040000026304670BDB1F5007F3AD00FDC202974
:1010500028D006DC01291CD004291DD0082940D144
:101060001DE0402921D0B1F5807F3AD126E0B1F5CD
:10107000004F31D006DCB1F5806F25D0B1F5006F9F
:101080002FD124E0B1F5803F12D0B1F5003F28D137
:1010900011E0154A826025E00822C26022E0102299
:1010A000C2601FE0082202611CE01022026119E008
:1010B0000822426016E01022426013E004224260DF
:1010C00010E0042242600DE0042242600AE00022A7
:1010D00082610422426005E00022826104224260B3
:1010E00000E000BF00BF70470101010010B50446D9
:1010F0009848844208D10121084600F0B2FD002141
:10110000012000F0AEFD76E09348844208D1012131
:10111000022000F0A6FD0021022000F0A2FD6AE0FE
:101120008E48844208D10121042000F09AFD00215C
:10113000042000F096FD5EE08948844208D1012138
:10114000082000F08EFD0021082000F08AFD52E00A
:101150008448844208D10121102000F082FD002142
:10116000102000F07EFD46E07F48844208D1012136
:10117000202000F076FD0021202000F072FD3AE0F2
:101180007A48844208D10121402000F06AFD002104
:10119000402000F066FD2EE07548844208D1012110
:1011A000802000F05EFD0021802000F05AFD22E04A
:1011B0007048844208D10121801500F052FD0021C1
:1011C000A01500F04EFD16E06B48844208D10121C5
:1011D000401500F046FD0021601500F042FD0AE0D8
:1011E0006648844207D10121001500F03AFD002134
:1011F000201500F036FD10BDF0B50A460021002391
:10120000002400BF3DE0012505FA01F3156805EA59
:1012100003049C4234D105684F000326BE40B54309
:10122000056015794E00B5400668354305601579AF
:10123000012D02D01579022D16D185684F000326A5
:10124000BE40B543856055794E00B540866835434C
:101250008560456801268E40B543456045689679AE
:101260008E40B6B235434560C5684F000326BE4088
:10127000B543C560D5794E00B540C6683543C560F5
:10128000491C1029BFD3F0BD4FF6FF71016000214A
:10129000017141718171C171704708B54FF480329D
:1012A0000092009A0A430092009AC261C161009ABA
:1012B000C261C2690092C269009208BD0246002064
:1012C00013690B400BB1012000E00020704701467C
:1012D000086980B270470246002053690B400BB189
:1012E000012000E0002070470146486980B2704745
:1012F00001837047418370470AB1018300E0418355
:1013000070474161704742694A4042617047F0B599
:10131000002300244D07ED0E02FA05F3CE1000F174
:10132000200555F826504E07F70E0F26BE40B54350
:10133000CF1000F1200646F82750CE1000F120050E
:1013400055F8265045EA0304CE1000F1200545F873
:101350002640F0BD000002400004024000080240A8
:10136000000C02400010024000140240001802402D
:10137000001C0240002002400024024000280240DD
:1013800010B50446F848844209D10121480500F00F
:101390009BFC00214FF4001000F096FC18E0F3488D
:1013A000844209D10121880500F08EFC00214FF410
:1013B000800000F089FC0BE0ED48844208D1012157
:1013C000C80500F081FC00214FF4000000F07CFC17
:1013D00010BD2DE9FF4704460D460026B1460427FF
:1013E000DFF89083A6884FF6C0700640684600F08C
:1013F000FCFADDF80880E048B8FBF0F01FFA80F94D
:1014000046EA0906A68020884FF6FE710840208033
:101410000026DA49286888420CD828684000B8FBC2
:10142000F0F087B2042F00DA04273E4309F10100EF
:10143000208427E0E8884BF6FF71884206D12868AF
:1014400000EB4000B8FBF0F087B209E0286800EB41
:10145000C00101EB0010B8FBF0F087B247F4804701
:10146000C7F30B0008B947F0010747F400400643F3
:101470004FF4967009FB00F04FF47A7190FBF1F095
:10148000401C2084A683208840F00100208026880C
:101490004FF6F5300640A888698908430643268040
:1014A000A889298908432081BDE8FF8741F2883156
:1014B0000160002181804BF6FF71C1800021018114
:1014C00041814FF480418181704721B1028842F00F
:1014D0000102028004E002884FF6FE731A40028087
:1014E000704729B1828C4FF6EF731A40828403E073
:1014F000828C42F01002828470470A460021818C5F
:101500004FF6F073194002F00F03194381847047BE
:1015100021B1028842F48072028004E002884FF612
:10152000FF631A400280704721B1028842F40072C2
:10153000028004E002884FF6FF531A400280704791
:1015400012B141F0010101E001F0FE01018270479A
:1015500021B1028842F48062028004E002884FF6E2
:10156000FF331A40028070470A46002181894FF6F6
:101570000173194002F0FE0319438181704721B1C4
:10158000828942F00102828104E082894FF6FE7373
:101590001A408281704721B1028842F040020280E5
:1015A00004E002884FF6BF731A400280704721B1F1
:1015B000028842F40042028003E00288C2F30E0275
:1015C0000280704721B9028842F08002028004E064
:1015D00002884FF67F731A4002807047B1F5804F42
:1015E00005D0828B4BF6FF731A40828303E0828B17
:1015F00042F4804282837047B1F5006F04D10288C3
:1016000042F40062028004E002884FF2FF731A4045
:1016100002807047B1F5005F04D1028842F40052A5
:10162000028004E002884DF6FF731A400280704782
:1016300021B1028842F01002028004E002884FF6D5
:10164000EF731A4002807047018270470146088A92
:10165000C0B2704721B1028842F48052028004E097
:1016600002884EF6FF731A4002807047B1F5006F92
:1016700004D1028842F40062028004E002884FF242
:10168000FF731A400280704721B1028842F02002A5
:10169000028004E002884FF6DF731A400280704730
:1016A0000146088B0012704721B1828842F4006223
:1016B000828004E082884FF2FF731A408280704774
:1016C00021B1828842F48052828004E082884EF602
:1016D000FF731A408280704708B5024600200090D0
:1016E00000920098084400900098008808BD1AB144
:1016F00083880B43838002E083888B438380704719
:1017000070B502460024002500230020958A138B23
:101710001B0445EA030626F07F4404EA01068E42D4
:1017200001D1012000E0002070BD10B5014600206D
:10173000002300228B8A0A8B120443EA020424F05D
:101740007F4010BD0CB5024600200023019300939A
:1017500000920B0F019321F07F41019B83B1009B0D
:101760001433009310E00000005400400058004083
:10177000005C004000127A0040420F00A086010089
:10178000090C009B18330093009B1B680B400BB1A6
:10179000012000E000200CBD002221F07F42D34355
:1017A0008382704730B5024600200023948801F000
:1017B000E06504EA154321F07F41948A0C4014B19E
:1017C0000BB1012000E0002030BD002221F07F425B
:1017D000D343838270470000F948006840F001005D
:1017E000F74908600020F64908310860F4480068AD
:1017F000F4490840F2490860F348091D0860F348BD
:10180000EF4984310860F0481038091D0860EC4841
:10181000006820F48020EA4908600020E8490C3183
:101820000860E7498C31086070470021E44A921C47
:10183000117011460870704710B501460022002350
:1018400000204A11012A02D1DD4C236808E0022A57
:1018500003D1DB4C7034236802E0D94C7434236824
:1018600001F01F02012494401C400CB1012000E053
:10187000002010BD38B5002000900024002500BFD6
:101880003120FFF7D9FF05460098401C00900098D2
:10189000B0F5A04F01D0002DF2D03120FFF7CCFFE2
:1018A00008B1012400E00024204638BD0146002094
:1018B000C34A106820F0F80040EAC1001060704789
:1018C000C349086070470021BD4A70321170117021
:1018D000012802D004280AD104E00121B84A70325C
:1018E000117005E00521B64A7032117000E000BFAA
:1018F00000BF7047B7490860704770B5049C41EA63
:1019000082150126C6EB530645EA0645054345EA1E
:101910000465AB4E361D356070BDAD490866704735
:10192000820142EA0172A64B84331A607047A849CB
:101930008866704710B5830143EA016343EA027386
:101940009F4C8834236010BDA14908677047A049A7
:10195000C864704702460020994B0833186820F08D
:10196000EC6042EA01031843954B08331860704756
:1019700002460020924B0833186820F0784042EA73
:10198000010318438E4B083318607047014600204E
:101990008B4A0832106820F003000843106070473B
:1019A00087480830006800F00C00704701460020AE
:1019B000834A0832106820F0F00008431060704736
:1019C000014600207E4A0832106820F4E0500843A7
:1019D0001060704701460020794A0832106820F4F0
:1019E000604040EAC10010607047F0B5002100225D
:1019F0000024022500260223714F08373F6807F0B4
:101A00000C0121B1042905D0082937D105E0724F16
:101A1000076036E0714F076033E0694F3F1D3F6854
:101A2000C7F38056664F3F1D3F6807F03F036EB116
:101A30006A4FB7FBF3F7DFF888C10CF1040CDCF850
:101A400000C0CCF3881C07FB0CF40CE0624FB7FB22
:101A5000F3F7DFF86CC10CF1040CDCF800C0CCF338
:101A6000881C07FB0CF4564F3F1D3F68C7F3014726
:101A70007F1C7D00B4FBF5F7076002E0564F07605E
:101A800000BF00BF4E4F08373F6807F0F00109095B
:101A9000534F7A5C0768D7404760494F08373F6823
:101AA00007F4E051890A4E4F7A5C4768D740876057
:101AB000434F08373F6807F46041490B484F7A5C51
:101AC0004768D740C760F0BD002100F44072B2F50E
:101AD000407F0AD13A4A0832116821F4F811414A8C
:101AE00002401143364A08321160354A703212689A
:101AF000C0F30B031A43324B70331A6070473549F9
:101B000044390860704733494039086070473649A6
:101B10000860704701460020294A8C32106820F086
:101B20001F004A1E1043264A8C321060704701463F
:101B30000020234A8C32106820F4F8504A1E40EAF4
:101B400002201F4A8C3210607047014600201C4A58
:101B50008C32106820F44010084310607047014632
:101B60000020174A8C32106820F4400008431060AF
:101B7000704701460020124A8C32106820F4403031
:101B800008431060704719490860704739B10C4A22
:101B90003032126802430A4B30331A6006E0084ABA
:101BA000303212688243064B30331A607047F9B105
:101BB000034A343212680243014B34331A601CE08A
:101BC00000380240FFFFF6EA103000240030002009
:101BD00000004742800E47420024F40000127A00C1
:101BE00018000020FFFCFF0F5C014742E011474254
:101BF0008F4A126882438E4B1A60704739B18C4A03
:101C0000121D126802438A4B1B1D1A6006E0884AA7
:101C1000121D12688243864B1B1D1A60704739B132
:101C2000834A0C3212680243814B0C331A6006E07F
:101C30007F4A0C32126882437D4B0C331A60704726
:101C400039B17B4A103212680243794B10331A6063
:101C500006E0774A103212688243754B10331A60DF
:101C6000704739B1724A243A12680243704B243BE0
:101C70001A6006E06E4A243A126882436C4B243B99
:101C80001A60704739B16A4A203A12680243684BB9
:101C9000203B1A6006E0664A203A12688243644B91
:101CA000203B1A60704739B1614A1C3A12680243FE
:101CB0005F4B1C3B1A6006E05D4A1C3A1268824387
:101CC0005B4B1C3B1A60704739B1594A143A126891
:101CD0000243574B143B1A6006E0554A143A126807
:101CE0008243534B143B1A60704739B1504A103A43
:101CF000126802434E4B103B1A6006E04C4A103A01
:101D0000126882434A4B103B1A60704739B1484A07
:101D10001C3212680243464B1C331A6006E0444AE8
:101D20001C3212688243424B1C331A60704739B12F
:101D30003F4A2032126802433D4B20331A6006E0CE
:101D40003B4A203212688243394B20331A60704775
:101D500039B1374A243212680243354B24331A60B2
:101D600006E0334A243212688243314B24331A602E
:101D7000704739B12E4A2C32126802432C4B2C3357
:101D80001A6006E02A4A2C3212688243284B2C3310
:101D90001A60704739B1264A303212680243244B28
:101DA00030331A6006E0224A303212688243204BF8
:101DB00030331A607047012808D11D493C31096849
:101DC00041F008011A4A3C32116007E018493C31E1
:101DD000096821F00801164A3C321160704739B198
:101DE000134A273A12780243114B273B1A7006E038
:101DF0000F4A273A127882430D4B273B1A707047DF
:101E00000B484030006840F080700949403108605C
:101E1000704701460020064A283A12680A400AB173
:101E2000012000E000207047014926390870704702
:101E30003438024010B50446FE48844208D10121DE
:101E40000846FFF752FF00210120FFF74EFF9DE0FB
:101E5000B4F1804F08D101210846FFF735FF00217A
:101E60000120FFF731FF91E0F348844208D10121BE
:101E70000220FFF729FF00210220FFF725FF85E060
:101E8000EE48844208D101210420FFF71DFF002104
:101E90000420FFF719FF79E0E948844208D10121C5
:101EA0000820FFF711FF00210820FFF70DFF6DE06C
:101EB000E448844208D101211020FFF705FF0021EA
:101EC0001020FFF701FF61E0DF48844208D10121C3
:101ED0002020FFF7F9FE00212020FFF7F5FE55E056
:101EE000DA48844208D101210220FFF7FEFE0021DA
:101EF0000220FFF7FAFE49E0D548844209D10121CA
:101F00000804FFF7F2FE00214FF48030FFF7EDFEEA
:101F10003CE0D048844209D101214804FFF7E5FEA6
:101F200000214FF40030FFF7E0FE2FE0CA48844262
:101F300009D101218804FFF7D8FE00214FF4802049
:101F4000FFF7D3FE22E0C548844208D1012140209A
:101F5000FFF7BAFE00214020FFF7B6FE16E0C048AA
:101F6000844208D101218020FFF7AEFE00218020AD
:101F7000FFF7AAFE0AE0BB48844207D10121801581
:101F8000FFF7A2FE0021A015FFF79EFE10BD002264
:101F90000288A84B98420ED0AC4B98420BD0B0F1BF
:101FA000804F08D0A44B984205D0A44B984202D051
:101FB000A34B984204D14FF68F731A404B881A43B3
:101FC000A04B984207D0A04B984204D04FF6FF4355
:101FD0001A400B891A4302804B68C3620B88038541
:101FE000944B984202D0994B984201D18B7A038648
:101FF0000123838270474FF0FF314160002101804F
:1020000001814180817270470185828270470A4652
:10201000002101884FF68F731940114301807047EA
:1020200041627047C16270470146486A7047014685
:10203000088D704721B1028842F00202028004E05C
:1020400002884FF6FD731A400280704721B1028862
:1020500042F00402028004E002884FF6FB731A404B
:102060000280704721B1028842F08002028004E0C1
:1020700002884FF67F731A400280704702884FF63D
:10208000F7731A40028002880A4302807047028870
:102090004FF6FF431A40028002880A4302807047CD
:1020A00021B1028842F00102028004E002884FF66A
:1020B000FE731A400280704770B50024002200238E
:1020C000058C4FF6FE7635400584028C8388048BA0
:1020D0004FF68F752C40B51E2C400D882C43751E75
:1020E0002A408D892A434D882A43524DA84202D066
:1020F000564DA84213D14FF6F7752A40CD892A4391
:102100004FF6FB752A408D882A434FF6FF652B401A
:102110004FF6FF552B400D8A2B434D8A2B4383806E
:1021200004838D684563028470BD70B5002400226D
:102130000023058C4FF6EF7635400584028C8388AA
:10214000048B48F6FF752C404FF6FF452C400D8858
:102150004FF6FF7606EA05252C434FF6DF752A4039
:102160008D8906EA05152A434D8806EA05152A4396
:10217000304DA84202D0354DA8421DD14FF67F7593
:102180002A40CD894FF6FF7606EA05152A434FF619
:10219000BF752A408D8806EA05152A434FF6FF359C
:1021A0002B404FF2FF752B400D8A06EA85052B4325
:1021B0004D8A06EA85052B43838004838D688563F9
:1021C000028470BD70B5002400220023058C4FF6F8
:1021D000FF6635400584028C8388848B4FF68F75AB
:1021E0002C404FF6FC752C400D882C434FF6FF55C4
:1021F0002A408D894FF6FF7606EA05252A434D8849
:1022000006EA05252A430B4DA84202D00F4DA842ED
:1022100038D14FF2FF752A40CD894FF6FF7606EA96
:1022200005252A434FF6FF352A408D8806EA052505
:102230002A4319E00000014000040040000800406B
:10224000000C004000100040001400400004014059
:102250000040014000440140004801400018004097
:10226000001C0040002000404EF6FF752B404DF64C
:10227000FF752B400D8A06EA05152B434D8A06EAA9
:1022800005152B43838084838D68C563028470BDEC
:1022900070B5002200230024058C4EF6FF763540F1
:1022A0000584038C8488828B48F6FF752A404FF69C
:1022B000FF452A400D884FF6FF7606EA05252A439A
:1022C0004DF6FF752B408D8906EA05352B434D8869
:1022D00006EA05352B43FE4DA84202D0FD4DA8422B
:1022E00008D14BF6FF752C400D8A4FF6FF7606EAB3
:1022F00085152C43848082838D680564038470BDBA
:10230000002101804180818081608181C1810182C1
:102310004182704770B503460020002418461830EB
:1023200001258D40ACB21D8CA5431D8409B108293F
:102330000AD100EB610005684FF68F7635400560E5
:102340000568154305600FE00D1FC5F34E052844D1
:10235000056848F6FF763540056005684FF6FF765C
:1023600006EA02263543056070BD4163704781630C
:102370007047C1637047016470470A460021018BB2
:102380004FF68F7319401143018370470A460021AD
:10239000018B48F6FF7319404FF6FF7303EA0223DF
:1023A0001943018370470A460021818B4FF68F73D2
:1023B00019401143818370470A460021818B48F6FA
:1023C000FF7319404FF6FF7303EA02231943818319
:1023D00070470A460021018B4FF6F77319401143ED
:1023E000018370470A460021018B4FF2FF731940A9
:1023F0004FF6FF7303EA02231943018370470A462D
:102400000021818B4FF6F773194011438183704788
:102410000A460021818B4FF2FF7319404FF6FF737C
:1024200003EA02231943818370470A460021018B86
:102430004FF6FB7319401143018370470A46002190
:10244000018B4FF6FF3319404FF6FF7303EA022367
:102450001943018370470A460021818B4FF6FB73B5
:1024600019401143818370470A460021818B4FF642
:10247000FF3319404FF6FF7303EA022319438183A8
:1024800070470A460021018B4FF67F7319401143B4
:10249000018370470A460021018BC1F30E014FF6FC
:1024A000FF7303EA02231943018370470A460021A0
:1024B000818B4FF67F7319401143818370470A4621
:1024C0000021818BC1F30E014FF6FF7303EA022353
:1024D0001943818370470A460021018C4FF6FD7332
:1024E00019401143018470470A460021018C4FF6C0
:1024F000F77319401143018470470A460021018C8B
:102500004FF6DF7319404FF6FF7303EA02131943C6
:10251000018470470A460021018C4FF67F731940F1
:102520004FF6FF7303EA02131943018470470A460A
:102530000021018C4FF6FF5319404FF6FF7303EA59
:1025400002231943018470470A460021018C4FF28F
:10255000FF7319404FF6FF7303EA02231943018406
:1025600070470A460021018C4DF6FF7319404FF663
:10257000FF7303EA023319430184704730B5002327
:1025800001248C40A3B2048C9C430484048C02FA82
:1025900001F5ADB22C43048430BD30B500230424D2
:1025A0008C40A3B2048C9C430484048C02FA01F591
:1025B000ADB22C43048430BD828B4FF2FF331A40FE
:1025C0008283828B4FF6FF7303EA01231A438283CF
:1025D0007047F0B50C461546002100220026078CF6
:1025E0004EF6FF7C07EA0C070784818B028C4FF6BE
:1025F000FF7707EA043640F6FF4739404FF6FF778A
:1026000007EA052739434FF6FF7707EA03373943CF
:1026100045F6FF773A4046F480573A438183028477
:10262000F0BD828B4FF6F3731A408283828B0A438C
:1026300082837047F0B50C46154600210022002623
:10264000078C4FF6FF6C07EA0C070784818B028C1E
:102650004FF6FF7707EA04264FF60C7739404FF61E
:10266000FF7707EA03172F4339434FF2FF573A40EA
:1026700046F480773A4381830284F0BD028B4FF2A7
:10268000FF331A400283028B4FF6FF7303EA0123E4
:102690001A4302837047F0B50C461546002100220C
:1026A0000026078C4FF6EF7C07EA0C070784018BA6
:1026B000028C4FF6FF7707EA041640F6FF473940D1
:1026C0004FF6FF7707EA033739434FF6FF7703E00A
:1026D000000001400004014007EA052739434FF696
:1026E0005F773A4046F010073A4301830284F0BD19
:1026F000028B4FF6F3731A400283028B0A43028364
:102700007047F0B50C46154600210022068C4FF6A6
:10271000FE773E400684018B028C4FF60C763140EA
:102720007E1C06EA03162E4331434FF6F5763240FF
:1027300044F00106324301830284F0BD70B50546C2
:102740000C46208850B92389A28861882846FFF763
:10275000D8FFE1882846FFF7CBFF25E02088042832
:102760000AD12389A28861882846FFF794FFE1886F
:102770002846FFF783FF17E0208808280AD123891D
:10278000A28861882846FFF755FFE1882846FFF7B1
:1027900048FF09E02389A28861882846FFF719FFCE
:1027A000E1882846FFF708FF70BD002101804180C5
:1027B000012181800021C180018170472DE9F04114
:1027C00005460C4600260127608808B9022600E06D
:1027D0000026A088012801D1022700E001272088D7
:1027E000A0B92389A28861882846FFF78AFFE1887B
:1027F0002846FFF77DFF23893A4631462846FFF7F2
:102800004AFFE1882846FFF739FF13E02389A288B1
:1028100061882846FFF73FFFE1882846FFF72EFF33
:1028200023893A4631462846FFF76BFFE188284660
:10283000FFF75EFFBDE8F0810146486B7047014637
:10284000886B70470146C86B70470146086C70473B
:102850000A884B881A438B881A43CB881A430B8902
:102860001A434B891A438B891A43A0F844207047B6
:102870000021018041808180C1800181418181816D
:10288000704731B1B0F8442042F40042A0F844202F
:1028900005E0B0F84420C2F30E02A0F844207047CF
:1028A00021B1828842F00402828004E082884FF6DF
:1028B000FB731A408280704721B1828842F0010286
:1028C000828004E082884FF6FE731A40828070474F
:1028D0001AB183890B43838102E083898B4383810F
:1028E00070478182704702460020138A0B400BB16B
:1028F000012000E000207047CA430282704730B5D3
:102900000246002000230024158A05EA0103958968
:1029100005EA010413B10CB1012000E0002030BD34
:10292000CA430282704741EA0203A0F84830704768
:102930001AB183890B43838102E083898B438381AE
:10294000704721B1828842F00802828004E08288C8
:102950004FF6F7731A408280704701894FF6F8727C
:102960001140018170470A46002101894FF68F739B
:10297000194011430181704730B504460D46294680
:102980002046FFF7F0FF208940F00700208130BD8E
:102990002DE9F04104460D4616461F46602D06D12E
:1029A0003B46012231462046FFF775FE05E03B46D7
:1029B000012231462046FFF7A4FE29462046FFF7B4
:1029C000D2FF208940F007002081BDE8F08130B5BA
:1029D0000C4600210189C9B24FF6FF7505EA0325AF
:1029E000154325432943018130BD2DE9F0410546BA
:1029F0000E4617469846002443463A463146284636
:102A0000FFF7E5FF2C894FF6F870044044F0070407
:102A10004FF68F70044044F070042C81BDE8F081C3
:102A2000F0B504460D4616461F463B46324629463B
:102A30002046FFF7CCFF208940F480402081F0BD84
:102A400082884FF68F731A40828082880A43828080
:102A5000704702894FF6F8731A40028102890A43CF
:102A60000281704702894FF67F731A400281028902
:102A70000A4302817047F0B50C4615461E460021F8
:102A8000002200230189028B038C4FF6F87739402E
:102A900021434FF6FC473A4040F201173A434FF6C4
:102AA000DD773B404FF6FF7707EA06172F433B439E
:102AB000018102830384F0BD21B1828842F080024B
:102AC000828004E082884FF67F731A4082807047CC
:102AD000A0F850107047000010B50446FA48844230
:102AE00008D101211020FFF700F900211020FFF785
:102AF000FCF857E0F548844209D101214804FFF76A
:102B0000E3F800214FF40030FFF7DEF84AE0F04828
:102B1000844209D101218804FFF7D6F800214FF43F
:102B20008020FFF7D1F83DE0EA48844209D1012135
:102B3000C804FFF7C9F800214FF40020FFF7C4F8DC
:102B400030E0E548844209D101210805FFF7BCF8CF
:102B500000214FF48010FFF7B7F823E0DF488442EC
:102B600008D101212020FFF7C0F800212020FFF725
:102B7000BCF817E0DA48844209D101218807FFF741
:102B8000A3F800214FF08040FFF79EF80AE0D548F7
:102B9000844207D101214005FFF796F80021600526
:102BA000FFF792F810BD2DE9FF4705460E460024B9
:102BB000A14600BFA046B08900B100BF2C8A24F412
:102BC0004054F08804432C82AC8941F20C60844369
:102BD000B08831890843718908430443AC81AC8AC9
:102BE00024F44074B0890443AC826846FEF7FDFECD
:102BF000B548854202D0B948854202D1DDF80C9033
:102C000001E0DDF80890A88900F4004040B109EB2C
:102C1000C90000EB091031684900B0FBF1F707E08B
:102C200009EBC90000EB091031688900B0FBF1F72E
:102C30006420B7FBF0F004012009642101FB107847
:102C4000A88900F4004040B1322000EBC800B0FB7E
:102C5000F1F000F00700044308E0322000EB081018
:102C60006421B0FBF1F000F00F0004432C81BDE8BB
:102C7000FF874FF41651016000218180C1800181DE
:102C80000C21418100218181704710B5024600204E
:102C9000108A20F470600B884C8823438C8823436F
:102CA000CC8823431843108210BD0021018041804D
:102CB0008180C180704721B1828942F400528281B3
:102CC00004E082894DF6FF731A4082817047028BBF
:102CD00002F47F420283028B0A430283704721B1D0
:102CE000828942F40042828103E08289C2F30E02AB
:102CF0008281704721B1828A42F40062828204E0BC
:102D0000828A4FF2FF731A4082827047C1F3080231
:102D10008280704701468888C0F308007047028AA5
:102D20004FF6F0731A400282028A0A430282704709
:102D300021B1828942F00202828104E082894FF649
:102D4000FD731A408281704782894FF2FF731A40E7
:102D5000828182890A4382817047028A4FF6DF733B
:102D60001A400282028A0A430282704721B1028A13
:102D700042F48042028204E0028A4BF6FF731A405A
:102D800002827047818941F001018181704721B140
:102D9000828A42F00802828204E0828A4FF6F77348
:102DA0001A4082827047028BD2B20283028B42EABF
:102DB00001220283704721B1828A42F0200282827E
:102DC00004E0828A4FF6DF731A408282704721B195
:102DD000828A42F01002828204E0828A4FF6EF7308
:102DE0001A4082827047828A4FF6FB731A408282B1
:102DF000828A0A438282704721B1828A42F00202AB
:102E0000828204E0828A4FF6FD731A408282704704
:102E10001AB1838A0B43838202E0838A8B438382C5
:102E20007047F0B50346002400260025002040F638
:102E30006A17B94200D100BF1846C1F3421401F02D
:102E40001F06012707FA06F5012C01D10C3004E01A
:102E5000022C01D1103000E014301AB107682F4362
:102E6000076002E00768AF430760F0BD024600203C
:102E7000B1F5007F00D100BF13880B400BB10120DA
:102E800000E00020704701F40072B2F5007F00D12D
:102E900000BFCA430280704770B502460024002379
:102EA0000025002040F66A16B14200D100BFC1F3F0
:102EB000421501F01F03012606FA03F3012D13D179
:102EC0009689334017E000000010014000440040A4
:102ED00000480040004C00400050004000140140F9
:102EE00000780040007C0040022D02D1168A334059
:102EF00001E0968A33400C12012606FA04F4168883
:102F0000344013B10CB1012000E0002070BD10B5B9
:102F10000022002340F66A14A14200D100BF0A1229
:102F200001249440A3B2DC43048010BD10B50446D4
:102F30006FF00400FDF7C4FBE11704EB5171C1F31E
:102F4000C701274A11701046007800EB4001C1EB21
:102F5000C0104FF6FF7101EAC0002249088010BD81
:102F60000146204A12884A434FF0E0235A6100226A
:102F70009A611A46126942F001021A6100BF4FF0CD
:102F8000E022106900F001021AB100F48032002A38
:102F9000F5D04FF0E022126922F001024FF0E02359
:102FA0001A6100229A61704770B504464FF40770A9
:102FB00094FBF0F0C6B24FF4077094FBF0F100FB05
:102FC000114085B205E04FF40770FFF7C9FF701E8E
:102FD000C6B2002EF7D115B12846FFF7C1FF70BD6C
:102FE000280000202A00002000BF704700BF734A5D
:102FF000128802F04002002AF9D0C2B26F4B1B1DAA
:103000001A80704710B588B0044601210820FEF7E9
:10301000BDFD01218804FEF702FE07220921684850
:10302000FEF775F9072208216548FEF770F94FF49D
:103030004070069002208DF81C008DF81D000020C5
:103040008DF81E0001208DF81F0006A95C48FEF7D0
:10305000D3F802940020ADF80C00ADF80E00ADF8E6
:103060001000ADF814000C20ADF8120002A953486E
:10307000FFF799FD01215148FFF71DFE012240F2A3
:1030800025515048FFF7CDFE25208DF804000B2078
:103090008DF8050000208DF8060001208DF807004E
:1030A00001A8FDF7C0FA08B010BD10B586B00446FF
:1030B00001210846FEF76AFD01214804FEF7AFFD35
:1030C000072202214048FEF722F9072203213E4849
:1030D000FEF71DF90C20049002208DF814008DF8E5
:1030E000150000208DF8160001208DF8170004A9A6
:1030F0003548FEF781F800940020ADF80400ADF8E3
:103100000600ADF80800ADF80C000C20ADF80A0080
:1031100069462E48FFF747FD01212C48FFF7CBFDFC
:1031200006B010BD10B540F225512648FFF7B4FE99
:1031300010B32448FFF7EEFDC4B22548008800F420
:103140000040C8B92248008800F4804060B10A2CD1
:1031500003D000201E49088020E01D48008840F46C
:1031600000401B49088019E00D2C06D11848008842
:1031700040F480401649088010E015480088C0F3EC
:103180000D0014490C5412480088401C1049088056
:1031900008460088C72801DD0020088010BD10B552
:1031A000044600BF80210748FFF760FE0028F9D0E1
:1031B00021460448FFF7AAFD10BD0000004800406A
:1031C000000C02400010014000000240004400409A
:1031D000300000204400002010B58AB00446A84802
:1031E000844223D100BF01210220FEF7CFFC012140
:1031F0004806FEF714FD4FF44070089002208DF849
:10320000240000208DF8260001208DF8270008A951
:103210009C48FDF7F1FF092208219A48FEF777F84C
:10322000092211469748FEF772F826E09648844234
:1032300023D100BF01210220FEF7A8FC01214FF09D
:10324000C060FEF7ECFC4FF44050089002208DF86F
:10325000240000208DF8260001208DF8270008A901
:103260008848FDF7C9FF09220D218648FEF74FF86F
:1032700009220C218348FEF74AF82046FDF73EFA62
:1032800005A8FDF75FFB00208DF81A008DF81B00E4
:103290008DF81C008DF81D008DF81E0001208DF8A2
:1032A0001F0000208DF816008DF8170008208DF8FB
:1032B000180003208DF81900ADF8140005A9204668
:1032C000FDF735FA704884421CD10E208DF80E00AF
:1032D00000208DF80F0001208DF810004FF41070C1
:1032E000ADF804000020ADF80600ADF80800ADF818
:1032F0000A00ADF80C0001208DF8110001A8FDF7BF
:10330000A0FA1FE05E4884421CD100208DF80E0018
:103310008DF80F0001208DF810008003ADF8040037
:103320000020ADF806002014ADF808000620ADF826
:103330000A000020ADF80C0001208DF8110001A852
:10334000FDF77FFA4E48844213D101220221FDF796
:1033500077FD14208DF8000009208DF80100002071
:103360008DF8020001208DF803006846FDF75BF937
:1033700015E04548844212D101220221FDF760FD8B
:1033800040208DF800000A208DF8010000208DF803
:10339000020001208DF803006846FDF744F90AB0E9
:1033A00010BD85B038480C30006800F00300E0B173
:1033B0003648006840F2FF7101EA505000903348EF
:1033C000001D006800F00F008DF80A002F4881688A
:1033D000CDF80B10C068CDF80F002B480C300068FA
:1033E00040F0200028490C31086005B07047F0B566
:1033F00085B005460C461646009600208DF808005C
:103400008DF809008DF80A40224629460DF10B007F
:1034100000F029FC69461C48FDF702FB07461C48E2
:103420001C49097847541B480078401C194908700A
:1034300008460078022801DD00200870002005B051
:10344000F0BD30B585B004460D46712000900220D5
:103450008DF80A0000208DF808008DF809008DF81D
:103460000B401DB101218DF80C1002E000218DF8F8
:103470000C1069460448FDF7D3FA05B030BD0000D2
:10348000006400400004024000680040B069004051
:1034900034000020370000201CB501211020FEF769
:1034A00075FB1020009001208DF8040000208DF89D
:1034B000060003208DF8050001208DF807006946FD
:1034C0003D48FDF799FE1CBD2DE9F04104460D462F
:1034D000164600270DE00120384908602846FFF70E
:1034E00063FD00203649C1F890023046FFF75CFDCD
:1034F0007F1CA742EFDBBDE8F0811CB50121102045
:10350000FEF744FB4FF48450009000208DF8040037
:1035100003208DF8050001208DF807006946264834
:10352000FDF76AFE1CBD70B5244874380068012898
:1035300003D1FF202349087002E0FE2021490870D2
:103540001E4860380068012803D1FF201E4908701A
:1035500002E0FE201C4908701A48007880F0FF0540
:103560001A480078684028401949087008460078D1
:103570006840164909784840164908701348057094
:103580001148007880F0FF04134800786040204024
:10359000124908700846007860400F490978484091
:1035A0000F4908700C4804700948007818B10121CF
:1035B0000C48FEF775FD70BD0010024090024242BB
:1035C000000042423E0000203F0000203900002061
:1035D000380000203A0000203C0000203B00002082
:1035E0003D000020000400407FB505460C46012147
:1035F0000220FEF714FB0295ADF804400020ADF860
:103600000600ADF80C0001A91648FEF7C0FC012227
:1036100011461448FFF75CF91D208DF800000120C9
:103620008DF8010000208DF8020001208DF80300C4
:103630006846FCF7F8FF00210A48FEF731FD7FBD20
:1036400010B501210748FFF75AF9012804D10648AF
:103650000078401C0449087001210248FFF760F916
:1036600010BD0000000400404000002000B587B0FD
:103670000121C805FEF7D3FA01210520FEF786FADD
:103680004FF48070019002208DF809008DF8080039
:1036900001208DF80A0001A9FE48FDF7ADFD4FF4A9
:1036A0000070019002208DF809008DF808000120BB
:1036B0008DF80A0001A9F848FDF79EFD04220821B3
:1036C000F448FDF724FE04220921F348FDF71FFE0C
:1036D000F248FDF755FE0020ADF810004BF6FF70E4
:1036E000ADF812003020ADF814004FF48060ADF852
:1036F00016000001ADF81800E94803900121E748E1
:10370000FDF7E3FE03A9E548FDF763FE07B000BD42
:1037100070B504460D4600BF4FF40031DF48FEF798
:1037200011F80028F8D10121DC48FDF7F1FE00BFB7
:10373000DC49DA48FDF7E4FF0028F9D000227821BF
:10374000D648FDF7FDFE00BFD749D448FDF7D8FFA6
:103750000028F9D02146D148FDF776FF00BFD249B5
:10376000891CCE48FDF7CCFF0028F8D02946CB486D
:10377000FDF76AFF00BFCC49891CC848FDF7C0FFB0
:103780000028F8D00121C548FDF7CEFE70BD10B568
:10379000044621460020FFF7BBFF10BD10B50446CC
:1037A00021464020FFF7B4FF10BD70B504460D461A
:1037B00005F1B001C8B2FFF7EAFF102141EA141089
:1037C000FFF7E5FF04F00F0141F00100FFF7DFFF15
:1037D00070BD70B5002415E004F1B001C8B2FFF768
:1037E000D6FF0020FFF7D3FF1020FFF7D0FF002502
:1037F00004E00020FFF7D2FF681CC5B2802DF8DB83
:10380000601CC4B2082CE7DB70BD10B56420FFF764
:10381000CBFBAE20FFF7BBFF2020FFF7B8FF102047
:10382000FFF7B5FFB020FFF7B2FFC820FFF7AFFFEB
:103830000020FFF7ACFF1020FFF7A9FF4020FFF7A3
:10384000A6FF8120FFF7A3FFFF20FFF7A0FFA12025
:10385000FFF79DFFA620FFF79AFFA820FFF797FF2D
:103860003F20FFF794FFA420FFF791FFD320FFF73D
:103870008EFF0020FFF78BFFD520FFF788FFF02099
:10388000FFF785FFD920FFF782FF2220FFF77FFF98
:10389000DA20FFF77CFF1220FFF779FFDB20FFF72C
:1038A00076FF2020FFF773FF8D20FFF770FF1420B5
:1038B000FFF76DFFAF20FFF76AFFFFF78AFF0021D8
:1038C0000846FFF772FF10BD10B58D20FFF75FFFB0
:1038D0001420FFF75CFFAF20FFF759FF10BD10B5B4
:1038E0008D20FFF754FF1020FFF751FFAE20FFF7A8
:1038F0004EFF10BD2DE9F05F2DED068B82460D4683
:1039000017461C464FF00008BAF17F0F02DDC24691
:10391000A81CC5B200266CE0304600F0B5FB41ECB7
:103920001A0B9FED620B53EC102B00F0FDFB41ECEA
:10393000180B204600F0A8FB41EC1A0B9FED5D0B25
:1039400053EC102B00F048FA41EC190B53EC182BF8
:1039500000F0AEFB03D8BDEC068BBDE8F09FAB4694
:10396000E81705EB507006EBE000C1B25046FFF7D8
:103970001CFF4FF0000935E00C2C0ED1A7F12001FF
:1039800001EB41014D4A02EB810341464A1C1FFAFB
:1039900082F8585CFFF702FF20E0102C0CD1A7F151
:1039A0002001474A02EB011341464A1C1FFA82F8E4
:1039B000585CFFF7F3FE11E0182C0ED1A7F120019F
:1039C00001EBC1013F4A02EB810341464A1C1FFA49
:1039D00082F8585CFFF7E2FE00E0BCE709F1010065
:1039E00000F0FF0904EBD471B9EB610FC4DB701C6C
:1039F000C6B2082E90DB00BFADE72DE9F0410746C7
:103A0000884614461D4600260DE0A25D2B46414621
:103A10003846FFF76FFF701CC6B2284605EBD07121
:103A200007EB6101CFB2A05D0028EED1BDE8F081C7
:103A30002DE9FF5F2DED068B0F4690461D464FF09A
:103A4000000A002493E098F80000C4EBC40101EBE5
:103A500081011D4A515C88427AD198F80100C4EB7B
:103A6000C40101EB81011144497888427DD10026CF
:103A700078E0304600F008FB41EC1A0B9FED0B0B91
:103A800053EC102B00F050FB41EC180B284600F0D3
:103A9000FBFA1BE00000024000080240005C00400E
:103AA000801A0600010003008200070000000000E9
:103AB0000000F03F0000000000002040A244000889
:103AC00016490008064F00082E43000841EC1A0B67
:103AD0001FED080B53EC102B00F07EF941EC190B95
:103AE00053EC182B00F0E4FA03D8BDEC068BBDE8CC
:103AF000FF9FBB46F81707EB507006EBE000C1B222
:103B00000698FFF752FE4FF0000927E00C2D0ED16A
:103B100004EBC40101EB4101504A1144C91C524657
:103B2000531C1FFA83FA885CFFF738FE12E0102D51
:103B30000FD1C4EBC40101EB8101494A1144C91CF6
:103B40005246531C1FFA83FA885CFFF727FE01E0F8
:103B50000BE0CAE709F1010000F0FF09A945D5DB38
:103B6000701CC6B2022E84DBBFE7601CC4B20E2CF0
:103B7000FFF669AF00BFB8E72DE9F041054688467A
:103B800014461E46002709E0E919C8B2334622460A
:103B90004146FFF74DFFB81987B2A41C20780028D2
:103BA000F2D1BDE8F0812DE9F04106460F461446FA
:103BB0001D464FF0000821E0B8F1000F13D1207826
:103BC000802802DD4FF0010818E022782B463946A4
:103BD0003046FFF78FFE641C284605EBD07106EBDC
:103BE0006101CEB20AE04FF000082B46224639466A
:103BF0003046FFF71DFFA41C7019C6B220780028BC
:103C0000DAD1BDE8F0812DE9F05F81460E46174616
:103C10001C46DDF828A04FF0000B002516E07019B7
:103C2000C1B24846FFF7C1FD4FF000080AE059460F
:103C30000BF1010B1AF80100FFF7B0FD08F10100CC
:103C40001FFA80F8B845F2DB681C85B2E11704EB77
:103C50005171B5EBE10FE2DBBDE8F09F00440008D5
:103C60002E4300087047032A40F2308010F0030C06
:103C700000F0158011F8013BBCF1020F624498BFBF
:103C800011F801CB00F8013B38BF11F8013BA2F15C
:103C9000040298BF00F801CB38BF00F8013B11F0D7
:103CA000030300F02980083AC0F0088051F8043B73
:103CB000083A51F804CBA0E80810F5E7121D5CBFE4
:103CC00051F8043B40F8043BAFF30080D20724BF17
:103CD00011F8013B11F801CB48BF11F8012B24BFAB
:103CE00000F8013B00F801CB48BF00F8012B7047FA
:103CF000704770477047704710B5203AC0F00B808E
:103D0000B1E81850203AA0E81850B1E81850A0E8DF
:103D10001850BFF4F5AF5FEA027C24BFB1E8185039
:103D2000A0E8185044BF18C918C0BDE810405FEAA9
:103D3000827C24BF51F8043B40F8043B08BF704725
:103D4000D20728BF31F8023B48BF11F8012B28BF2A
:103D500020F8023B48BF00F8012B7047754600F081
:103D60002BF8AE4605006946534620F0070085460D
:103D700018B020B5FCF740FCBDE820404FF000062D
:103D80004FF000074FF000084FF0000B21F0070143
:103D9000AC46ACE8C009ACE8C009ACE8C009ACE886
:103DA000C0098D46704710B50446AFF30080204629
:103DB000BDE81040FCF731BA004870470C01002004
:103DC000491058BFC1F140415B1058BFC3F1404397
:103DD0008B42EFF3008070472DE9C04130B4DFF82B
:103DE000A0C23CEA111418BF3CEA131400F0EC80A6
:103DF00081EA03051CEA111444EAD57418BF1CEAD1
:103E0000131500F0C780A4EB05044FF0004545EA08
:103E1000C12145EAC32341EA505143EA525304F118
:103E20007F74994204F500344FEAC0204FEAC22261
:103E300008BF904200F09C804FEA13650FF24016D5
:103E4000765D4FEA134506FB05F7C7F1807706FB61
:103E500007F74FEAD737A7FB03687642C8F58038E3
:103E6000A7FB06CE38BFA8F1010807FB08E64FF014
:103E7000000EA6FB028CE6FB03CEDCF1000CCEF1BB
:103E8000004E38BFAEF1010EA6FB0C584FF00007F4
:103E90004FF00005E6FB0E87A1FB08C6A0FB07CE8E
:103EA00016EB0E0645F10005E1FB076515F1E04E46
:103EB0007EBFA4F580345FEA46066D4116F18007A7
:103EC00045F100054FEA17274FEA066647EA0567FE
:103ED000A6F1DE46B6F1805F4FEA15251FD93846B8
:103EE00024F0010C05EBC471BCF1FE6F01EB0C1169
:103EF00002D8F0BCBDE8008124425CBF01F5801E01
:103F00009EEAC47F02D4F0BCBDE80081244238D4CC
:103F1000F0BCA1F1C041BDE8004100F0FDB94FEA9D
:103F2000D22242EA43524FEAD323A7FB02864FEA4A
:103F3000D02040EA415007FB03661EEA0E0F4FEA0D
:103F4000D12105FB026658BFA6EB0056B6EB005622
:103F50004FEA520E4EEAC37E18EB0E0E56EB530E8E
:103F6000BDD518EB02085E417F1C55F10005B6E790
:103F70004FF480154FF000074FF000064FF0000897
:103F8000ADE7F0BC4FF0000001F1C04101F000418D
:103F9000BDE8008111EA0C1F0CEA131500D00CE0FB
:103FA00013EA0C1F00F025804FF00000F0BC81EAFE
:103FB000030101F00041BDE80081F0BCBDE8004113
:103FC00081EA030100F0A8B9F0BCBDE8004170B57A
:103FD00000F054F9097EFC3E00F007B881EA0301C5
:103FE0004FF0000001F00041704781EA030100F04A
:103FF00093B9F0BCBDE800414FF000002149704783
:10400000FFFDFBF9F7F5F4F2F0EEEDEBE9E8E6E49D
:10401000E3E1E0DEDDDBDAD8D7D5D4D3D1D0CFCD24
:10402000CCCBCAC8C7C6C5C4C2C1C0BFBEBDBCBB5D
:10403000BAB9B8B7B6B5B4B3B2B1B0AFAEADACAB58
:10404000AAA9A8A8A7A6A5A4A3A3A2A1A09F9F9E32
:104050009D9C9C9B9A9999989797969595949393E4
:10406000929191908F8F8E8E8D8C8C8B8B8A89897B
:1040700088888787868585848483838282818180FE
:104080000000FF070000F87FB0FA80F310FA03F198
:104090000AD0C3F11D0303F580634FEA41504FEA94
:1040A000035202EBD12170474FF00000704700002F
:1040B00051EA030C17D41CF5801F58BFBCF5801FB4
:1040C00000F10680994218BF704708BF90427047C0
:1040D00007D711F5801F58BF13F5801F19D49942D7
:1040E0007047894270471CF5801F08D5BCF5801FBA
:1040F000F7D58B4218BF704708BF824270474FF414
:10410000001C1CEB410F38BF1CEB430F01D28B424C
:10411000704770B500F0B2F8922449004FF000519A
:104120004FF08053FFF74CBEDFF848C170B51CEA72
:10413000111E1EBF1CEA13159EEA0C0F95EA0C0F08
:1041400000F06F8081EA030423EA4C134EEAD47E28
:1041500021EA4C1141F4801143F48013AE44A1FBD9
:10416000024CA0FB0365AEF17F7E361955EB0C05C2
:10417000A1FB034C4CF10003A0FB021C16EB0C0648
:10418000654153F10003094218BF46F0010613F4DC
:10419000007F0BD14FEA03314FEA0530340341EA87
:1041A000155140EA16506FF003020AE04FEAC321AE
:1041B0004FEAC520F40241EA555140EA56506FF0EB
:1041C000020202EB2E4201EB025585EACE710AD0C3
:1041D0005FEA440C18BF24F0004450F1000041F1A4
:1041E000000120EAD47040F2FE7C624500D270BD2E
:1041F000A84214BF4FF080444FF04044002E08BF47
:104200000024BEF1806FA8BFA1F1C041BDE870409D
:1042100080F282804FF0000001F1C04101F00041C6
:1042200070479EEA0C0F0CEA131518BF95EA0C0FA5
:1042300006D04FF0000081EA030E0EF0004170BD81
:1042400000F01CF88900013E00F007B800F009B842
:104250004FEA430C5FEA5C5C08D081EA030100F09E
:104260005BB84FEA410C5FEA5C5CF6D14FF00000AE
:10427000014970470000FF070000F87F0EF1020EB1
:104280002EF0030E5EF8046B364205D4012A43EB90
:10429000030515F5001F12D8012841EB010C1CF590
:1042A000001F0CD80ED14FEAD17C15F5001F0CEB86
:1042B0004C0C0CF1020C08BF4CEBD37C04E04FF02B
:1042C000080C01E04FEAD37C0CEB4C0526FA05F60E
:1042D00006F00706B6F1040C06D20EEB860CBDE81C
:1042E00070404CF0010C6047DFE80CF0090B020253
:1042F0004FF000414FF00000A1F5002170BD1946BC
:104300001046012851EB010418BFD4F5001484BFF6
:10431000002001F0004170BD0808A0F500114FEA2F
:10432000310170474FF04070E1EE100A7047B5E779
:10433000000000F888888888FF88888888F800004E
:104340000000001F080808087F888888889F80F080
:1043500000D7D30080828282828282E2A2928A8601
:1043600082808000000000000040807F000000008C
:1043700000000000BFC6002424A4FEA3220022CC1B
:104380000000FF00000000080601FF000104040413
:104390000404FF02020200BCBC00101010FF1090C9
:1043A00008888888FF88888808000444827F018004
:1043B0008040432C102846818000B4F30020202048
:1043C00020202020FF20202020202020008080404E
:1043D00020100C0300030C102040808000D1A700A7
:1043E0004030119690909196909098141350300010
:1043F000040404040444847E060504040404040044
:10440000B5E700FC242424FF242424FC000000033E
:104410000101010709090909080E00D7D30040402E
:10442000424242F24A464240400000000008080F63
:10443000000000000000BFC60012D2FE51901224FE
:1044400000FF80800001000F00000101010F00004B
:1044500000BCBC008888FF4824E4243F24E4040016
:1044600000080F000808050205080800B4F3001052
:10447000101010D03FD010101010000808040300D6
:1044800000000304080800D1A7008C859694959637
:10449000D4B496858C0000000008080F00000000CE
:1044A000000000000000000000000000000000000C
:1044B000FC000000000002000000000C020C0200E2
:1044C00000000000000090D0BCD0BC9000030003AE
:1044D00000001824FE448C00030207020100182487
:1044E000D8B04C80000300010201C038E438E0007D
:1044F00001020201020208060000000000000000A4
:104500000000000000F804020000000102040002A4
:1045100004F800000004020100009060F8609000C0
:104520000000010000002020FC202000000001000D
:10453000000000000000000008060000000020202D
:10454000202020000000000000000000000000000B
:104550000002000000000080601C02000403000054
:104560000000F8040404F80001020202010000083F
:10457000FC0000000002030200001884442418001C
:1045800003020202020008042424D80001020202ED
:10459000010040B088FC80000000000302003C24C1
:1045A0002424C400010202020100F824242CC000CB
:1045B0000102020201000C04E41C040000000300DC
:1045C0000000D8242424D80001020202010038444B
:1045D0004444F80000030202010000001000000043
:1045E00000000200000000002000000000000600A3
:1045F000000000205088040200000000010290909A
:1046000090909000000000000000000204885020FC
:104610000002010000001804C42418000000020079
:104620000000F804E494F80001020202020000E035
:104630009CF0800002030000030204FC2424D80044
:10464000020302020100F80404040C000102020249
:10465000010004FC0404F80002030202010004FC4F
:1046600024740C0002030202030004FC24740C00F6
:10467000020302000000F0080444CC4000010202E2
:10468000010004FC2020FC040203000003020404D7
:10469000FC040400020203020200000404FC0404FF
:1046A00006040403000004FC24D00C0402030200EE
:1046B000030204FC04000000020302020203FC3CAB
:1046C000C03CFC0003000300030004FC30C4FC04F5
:1046D000020302000300F8040404F80001020202CD
:1046E000010004FC24241800020302000000F884E6
:1046F0008404F80001020207050004FC2464980009
:10470000020302000302182424448C000302020264
:1047100001000C04FC040C0000020302000004FC75
:104720000000FC04000102020100047C80E01C0483
:104730000000030000001CE03CE01C00000300033C
:104740000000049C609C0400020300030200041C9F
:10475000E01C04000002030200000C84641C04003E
:104760000203020203000000FE0202000000070430
:104770000400000E30C00000000000010200000232
:1047800002FE000000040407000000040204000010
:1047900000000000000000000000000008080808F9
:1047A00008080000020000000000000000000040B7
:1047B000A0A0C00000010202030204FC2020C000EF
:1047C00000030202010000C020206000000102027C
:1047D000020000C02024FC0000010202030200C00D
:1047E000A0A0C0000001020202000020F82424045E
:1047F0000002030202000040A0A0602000070A0A95
:104800000A0404FC2020C00002030200030200206E
:10481000E4000000000203020000000020E40000A9
:1048200008080807000004FC80E0202002030200C2
:1048300003020404FC000000020203020200E02064
:10484000E020C00003000300030020E02020C0009F
:1048500002030200030200C02020C0000001020287
:10486000010020E02020C000080F0A02010000C063
:104870002020E0000001020A0F0820E04020200074
:104880000203020000000060A0A02000000202025B
:1048900003000020F820000000000102020020E0D8
:1048A0000020E00000010202030220E020806020DE
:1048B0000000030100006080E0806000000300034E
:1048C000000020608060200002030003020020E05E
:1048D000208060200808070100000020A060200060
:1048E000000203020200000020DE020000000007B8
:1048F0000400000000FF00000000000F00000002A4
:10490000DE2000000004070000000201020404028F
:104910000000000000000000000000000000000097
:10492000000000000000000000F80000000000008F
:1049300000333000000000100C06100C06000000D0
:1049400000000000000040C07840C0784000043FF4
:1049500004043F040400007088FC083000000018C4
:1049600020FF211E0000F008F000E01800000021E8
:104970001C031E211E0000F00888700000001E218C
:1049800023241927211010160E000000000000003B
:10499000000000000000000000E018040200000019
:1049A00000071820400000020418E000000000404A
:1049B000201807000000404080F0804040000202C4
:1049C000010F01020200000000F0000000000101E0
:1049D000011F01010100000000000000000080B084
:1049E0007000000000000000000000000000000156
:1049F0000101010101010000000000000000003081
:104A0000300000000000000000008060180400601A
:104A100018060100000000E010080810E000000F78
:104A2000102020100F00001010F8000000000020DF
:104A3000203F202000000070080808887000003027
:104A400028242221300000300888884830000018CF
:104A5000202020110E000000C02010F800000007E8
:104A60000424243F240000F808888808080000195E
:104A7000212020110E0000E0108888180000000F8F
:104A8000112020110E0000380808C8380800000066
:104A9000003F000000000070880808887000001CBB
:104AA000222121221C0000E010080810E000000074
:104AB000312222110F00000000C0C00000000000E1
:104AC0000030300000000000008000000000000006
:104AD00080600000000000008040201008000001FD
:104AE00002040810200040404040404040000404C0
:104AF000040404040400000810204080000000208A
:104B0000100804020100007048080808F0000000C6
:104B1000003036010000C030C828E810E000071857
:104B2000272423140B000000C038E0000000203CC4
:104B300023020227382008F8888888700000203F68
:104B4000202020110E00C03008080808380007187F
:104B500020202010080008F808080810E000203F76
:104B6000202020100F0008F88888E8081000203F57
:104B700020202320180008F88888E8081000203F2B
:104B8000200003000000C0300808083800000718A3
:104B90002020221E020008F808000008F808203F24
:104BA000210101213F20000808F80808000000202A
:104BB000203F2020000000000808F8080800C080FE
:104BC00080807F00000008F888C028180800203F77
:104BD00020012638200008F8080000000000203FCF
:104BE00020202020300008F8F800F8F80800203FC6
:104BF000003F003F200008F830C00008F808203FC0
:104C0000200007183F00E01008080810E0000F100F
:104C1000202020100F0008F808080808F000203FA6
:104C2000210101010000E01008080810E0000F1841
:104C3000242438504F0008F8888888887000203F66
:104C40002000030C30200070880808083800003865
:104C5000202121221C00180808F80808180000006C
:104C6000203F2000000008F808000008F808001F96
:104C7000202020201F000878880000C83808000085
:104C800007380E010000F80800F80008F800033C9F
:104C90000700073C03000818688080681808203067
:104CA0002C03032C30200838C800C8380800000046
:104CB000203F2000000010080808C83808002038ED
:104CC000262120201800000000FE02020200000041
:104CD000007F40404000000C30C000000000000099
:104CE00000010638C00000020202FE000000004081
:104CF00040407F00000000000402020204000000A7
:104D000000000000000000000000000000008080A3
:104D1000808080808080000202040000000000008B
:104D2000000000000000000080808080000000196A
:104D3000242222223F2008F8008080000000003F4B
:104D4000112020110E000000008080800000000E65
:104D5000112020201100000000808088F800000E43
:104D6000112020103F200000808080800000001F64
:104D7000222222221300008080F0888888180020D8
:104D8000203F202000000000808080808000006B99
:104D900094949493600008F8008080800000203F85
:104DA000210000203F200080989800000000002093
:104DB000203F20200000000000809898000000C0E4
:104DC0008080807F000008F8000080808000203F05
:104DD00024022D302000000808F800000000002008
:104DE000203F202000008080808080808000203F45
:104DF00020003F20003F8080008080800000203F16
:104E0000210000203F200000808080800000001FE3
:104E1000202020201F00808000808000000080FF74
:104E2000A12020110E000000008080808000000E74
:104E3000112020A0FF8080808000808080002020C2
:104E40003F2120000100000080808080800000332E
:104E5000242424241900008080E0808000000000C9
:104E6000001F202000008080000000808000001FC4
:104E7000202020103F208080800000808080000162
:104E80000E300806010080800080008080800F3096
:104E90000C030C300F000080800080808000002018
:104EA000312E0E3120008080800000808080808143
:104EB0008E701806010000808080808080000021B4
:104EC000302C2221300000000000807C0202000013
:104ED0000000003F404000000000FF000000000014
:104EE0000000FF0000000002027C80000000004083
:104EF000403F00000000000601010202040400001F
:104F000000000000000000000000000000000000A1
:104F10000000000000000000000000000000000091
:104F2000000000000000000000000000000000F091
:104F3000F0F0000000000000000000017F01000010
:104F4000000000000000001C1C1C0000000000000D
:104F50008060301C8C60301C0C00000000000000E1
:104F60000000000000000000000000000000000041
:104F70000000000000E00000000000E000000086EB
:104F8000E69F86868686E69F860000011F01010156
:104F900001011F010100000080C06020F820E0C076
:104FA0000000000003070C18FF70E1810000000002
:104FB000070F10107F100F07000080602060800036
:104FC0000000E02000000F3020309F70DC371030F0
:104FD000C0000000100E03000718101807000000A2
:104FE000C02020E0C0000000000080E01F38E887FB
:104FF00003C43C040000070F1810100B070D10101D
:10500000080000808C4C3800000000000000000008
:105010000000000000000000000000000000000090
:1050200000000000000000000000000080E03008E8
:1050300004000000000000FEFF010000000000006E
:1050400000000000030F1820400000040830E0803A
:105050000000000000000000000001FFFE00000052
:105060000000004020180F030000000000000000B6
:1050700000000000C00000000000004266663C180E
:10508000FF183C66664200000000000003000000BC
:105090000000000000000000800000000000001080
:1050A00010101010FF101010101000000000000071
:1050B00003000000000000000000000000000000ED
:1050C0000000000000000000000000000000008060
:1050D0008C4C3800000000000000000000000000C0
:1050E0000000000000000010101010101010101030
:1050F00010000000000000000000000000000000A0
:10510000000000000000000000000000000000009F
:1051100000000000000000001C1C1C00000000003B
:1051200000000000000000000000E0380C0000005B
:10513000000080701C03000000000060380E0100B9
:10514000000000000000000080C060202060C080DF
:10515000000000FEFF010000000001FFFE00000152
:10516000070E181010180E0701000000808080C084
:10517000E000000000000000000000FFFF00000051
:10518000000000001010101F1F1010100000008001
:10519000402020202060C0800000000303008040E9
:1051A00020381F070000001C1A1918181818181F9B
:1051B00000000080C020202060C0800000000003AC
:1051C00003001010182FE780000000070F101010C8
:1051D00010180F070000000000000000C0E0F00001
:1051E000000000C0B088868180FFFF808000000042
:1051F00000000010101F1F1010000000E060606031
:1052000060606060000000003F1008080818F0E0CF
:10521000000000070B101010101C0F03000000000E
:1052200080C040202020E0C0000000FCFF211008CA
:10523000080818F0E0000001070C18101010080F03
:1052400003000000C0E06060606060E0600000009B
:1052500003000000E0180700000000000000001F2D
:105260001F00000000000080C0602020202060C0DF
:1052700080000087EF2C1818303068CF83000007BB
:105280000F0810101010180F07000000C0C02020D9
:105290002020C0800000001F3F604040402010FFE1
:1052A000FE0000000C1C101010080F03000000008E
:1052B0000000000000000000000000000000000EE0
:1052C0000E0E0000000000000000001C1C1C00006E
:1052D00000000000000000000000000000000000CE
:1052E0000000000C0C00000000000000000000584E
:1052F0003800000000000000000000000080402096
:10530000100000001028448201000000000000008E
:10531000000000000102040810000000000000006E
:1053200000000000000000848484848484848484D9
:1053300084000000000000000000000000000000E9
:10534000102040800000000000000000000000006D
:10535000018244281000000010080402010000002F
:10536000000000C020201010101030E0C00000032A
:10537000030000F010080C070300000000001C1CD4
:105380001C0000000000000000C040602020204001
:10539000C00000FCFF01F00E03C1FE03807F00018E
:1053A000070E08111110110904020000000080E02E
:1053B000E000000000000000807C4340477FF88050
:1053C000000010181F1000000000131F1C1020E028
:1053D000E02020202060C080000000FFFF1010109F
:1053E00010182FE78000101F1F1010101010180F3A
:1053F0000700000080C0402020202060E00000FC6A
:10540000FF0100000000000001000001070E18105D
:1054100010100804030020E0E02020202040C0807D
:10542000000000FFFF000000000001FFFE00101F51
:105430001F10101018080E07010020E0E0202020A7
:1054400020202060800000FFFF101010107C000062
:105450000000101F1F10101010101018060020E080
:10546000E020202020206060800000FFFF1010104E
:10547000107C00000100101F1F1000000000000041
:105480000000000080C06020202040E0000000FC00
:10549000FF0100004040C0C140400001070E18104D
:1054A00010100F0F000020E0E0200000000020E0BE
:1054B000E02000FFFF101010101010FFFF00101F61
:1054C0001F1000000000101F1F100000202020E00F
:1054D000E020202000000000000000FFFF0000008E
:1054E000000000001010101F1F101010000000001E
:1054F0000000202020E0E02020200000000000002C
:1055000000FFFF0000000060E0808080C07F3F005F
:10551000000020E0E020000020A06020200000FF2C
:10552000FF30187CE3C000000000101F1F100000B7
:1055300001131F1C181020E0E020000000000000F4
:10554000000000FFFF000000000000000000101F2E
:105550001F10101010101018060020E0E0E00000EE
:105560000000E0E0E02000FF013FFEC0E01E01FF80
:10557000FF00101F1000031F0300101F1F1020E06A
:10558000E0C0000000000020E02000FF0003071C36
:1055900078E08000FF00101F100000000000030FE3
:1055A0001F00000080C060202060C080000000FE5E
:1055B000FF010000000000FFFE000001070E1810B0
:1055C00010180C07010020E0E0202020202060C0FF
:1055D000800000FFFF2020202020301F0F00101F20
:1055E0001F100000000000000000000080C06020CC
:1055F0002060C080000000FEFF010000000000FFEE
:10560000FE000001070E1111133C7C67210020E011
:10561000E0202020202060C0800000FFFF1010301C
:10562000F0D0080F0700101F1F10000000030F1C10
:1056300010100080C060202020204040E0000007C3
:105640000F0C1818303060E08100001F0C0810109B
:105650001010180F07008060202020E0E02020209C
:1056600060800100000000FFFF000000000100005A
:105670000000101F1F100000000020E0E0200000CC
:1056800000000020E02000FFFF00000000000000FC
:10569000FF0000070F1810101010100807002060FE
:1056A000E0E02000000020E060200000077FF8809C
:1056B00000807C03000000000000071F1C070000A2
:1056C000000020E0E02000E0E0200020E0200007D3
:1056D000FFF8E01FFFFCE01F00000000031F0300B5
:1056E000011F03000000002060E0A0000020E06037
:1056F0002000000000038F7CF8C6010000000010AD
:10570000181E130001171F1810002060E0E0200091
:10571000000020E06020000001073EF8E0180700CC
:10572000000000000010101F1F101000000000807B
:105730006020202020A0E0E0200000000000C0F059
:105740003E0F0300000000101C1F1710101010184F
:1057500006000000000000FC040404040400000033
:10576000000000FF00000000000000000000007FBB
:10577000404040404000000010E0000000000000F9
:10578000000000000000031C60800000000000001A
:105790000000000000030C708000000004040404FA
:1057A00004FC0000000000000000000000FF0000FA
:1057B0000000000040404040407F0000000000002A
:1057C0000010080C040C081000000000000000008D
:1057D00000000000000000000000000000000000C9
:1057E00000000000000000000000000000000000B9
:1057F00000000000000000000000808080808080A9
:105800008080808080800000000404080800000080
:105810000000000000000000000000000000000088
:105820000000000000000000000000000000000078
:10583000000000000000000098D844642424FCF814
:105840000000000F1F18101010081F1F1018002054
:10585000E0F000000000000000000000FFFF18085A
:1058600004040CF8F00000001F0F18101010180F9F
:10587000030000000000000000000000000000E045
:10588000F8180404043C3800000000030F0C10104A
:105890001010080600000000000000000020E0F0EA
:1058A000000000E0F81C04040408FFFF00000003EF
:1058B0000F18101010081F0F080000000000000053
:1058C0000000000000000000E0F8484444444C7828
:1058D00070000000030F0C181010100804000000E6
:1058E000000080C0602020E0C00000040404FFFF2E
:1058F000040404040000000010101F1F101010000A
:105900000000000000000000000000000000000097
:1059100070F88C04048CF874040C007076CF8D8DB4
:105920008D89C87870000020E0F0000000000000C1
:1059300000000000FFFF08040404FCF80000001051
:105940001F1F100000101F1F10000000000000604B
:105950006000000000000000040404FCFC000000E3
:10596000000000001010101F1F1010100000000099
:10597000000000000060600000000000000004045F
:1059800004FCFC0000000000C0C08080C07F3F001D
:1059900000000020E0F00000000000000000000017
:1059A000FFFF80C0F41C0404000000101F1F110042
:1059B000031F1C1010000000202020E0F000000059
:1059C00000000000000000FFFF00000000000000D9
:1059D0001010101F1F101010000000000000000029
:1059E00000000000000004FCFC0804FCFC0804FCAF
:1059F000FC00101F1F10001F1F10001F1F100000B1
:105A0000000000000000000000000004FCFC08088A
:105A10000404FCF8000000101F1F100000101F1FDE
:105A2000100000000000000000000000000000E086
:105A3000F0180C04040C18F0E00000030F0C101018
:105A400010100C0F03000000000000000000000018
:105A500000000004FCFC080404040CF8F0000080C2
:105A6000FFFF889010101C0F0300000000000000D2
:105A700000000000000000E0F81C04040408F8FC2A
:105A8000000000030F1810109088FFFF8000000036
:105A900000000000000000000000040404FCFC10F2
:105AA0000804040C0C001010101F1F101010000030
:105AB00000000000000000000000000000000000E6
:105AC0003078CCC48484840C1C0000001E18101094
:105AD0001011190F06000000000000C000000000B7
